{
  "_format": "hh-sol-artifact-1",
  "contractName": "CVAProject",
  "sourceName": "src/contracts/projects/CVAProject.sol",
  "abi": [
    {
      "inputs": [
        {
          "internalType": "string",
          "name": "_name",
          "type": "string"
        },
        {
          "internalType": "address",
          "name": "_defaultToken",
          "type": "address"
        },
        {
          "internalType": "address",
          "name": "_rahatClaim",
          "type": "address"
        },
        {
          "internalType": "address",
          "name": "_otpServerAddress",
          "type": "address"
        },
        {
          "internalType": "address",
          "name": "_forwarder",
          "type": "address"
        }
      ],
      "stateMutability": "nonpayable",
      "type": "constructor"
    },
    {
      "inputs": [
        {
          "internalType": "address",
          "name": "target",
          "type": "address"
        }
      ],
      "name": "AddressEmptyCode",
      "type": "error"
    },
    {
      "inputs": [],
      "name": "FailedInnerCall",
      "type": "error"
    },
    {
      "anonymous": false,
      "inputs": [
        {
          "indexed": true,
          "internalType": "address",
          "name": "",
          "type": "address"
        }
      ],
      "name": "BeneficiaryAdded",
      "type": "event"
    },
    {
      "anonymous": false,
      "inputs": [
        {
          "indexed": true,
          "internalType": "address",
          "name": "",
          "type": "address"
        }
      ],
      "name": "BeneficiaryRemoved",
      "type": "event"
    },
    {
      "anonymous": false,
      "inputs": [
        {
          "indexed": true,
          "internalType": "address",
          "name": "beneficiary",
          "type": "address"
        },
        {
          "indexed": false,
          "internalType": "int256",
          "name": "amount",
          "type": "int256"
        }
      ],
      "name": "ClaimAdjusted",
      "type": "event"
    },
    {
      "anonymous": false,
      "inputs": [
        {
          "indexed": true,
          "internalType": "address",
          "name": "beneficiary",
          "type": "address"
        },
        {
          "indexed": false,
          "internalType": "uint256",
          "name": "amount",
          "type": "uint256"
        }
      ],
      "name": "ClaimAssigned",
      "type": "event"
    },
    {
      "anonymous": false,
      "inputs": [
        {
          "indexed": true,
          "internalType": "address",
          "name": "beneficiary",
          "type": "address"
        },
        {
          "indexed": true,
          "internalType": "address",
          "name": "vendor",
          "type": "address"
        },
        {
          "indexed": true,
          "internalType": "address",
          "name": "token",
          "type": "address"
        },
        {
          "indexed": false,
          "internalType": "uint256",
          "name": "amount",
          "type": "uint256"
        }
      ],
      "name": "ClaimProcessed",
      "type": "event"
    },
    {
      "anonymous": false,
      "inputs": [
        {
          "indexed": true,
          "internalType": "address",
          "name": "",
          "type": "address"
        }
      ],
      "name": "OtpServerUpdated",
      "type": "event"
    },
    {
      "anonymous": false,
      "inputs": [
        {
          "indexed": true,
          "internalType": "address",
          "name": "tokenAddress",
          "type": "address"
        },
        {
          "indexed": false,
          "internalType": "uint256",
          "name": "amount",
          "type": "uint256"
        }
      ],
      "name": "TokenBudgetDecrease",
      "type": "event"
    },
    {
      "anonymous": false,
      "inputs": [
        {
          "indexed": true,
          "internalType": "address",
          "name": "tokenAddress",
          "type": "address"
        },
        {
          "indexed": false,
          "internalType": "uint256",
          "name": "amount",
          "type": "uint256"
        }
      ],
      "name": "TokenBudgetIncrease",
      "type": "event"
    },
    {
      "anonymous": false,
      "inputs": [
        {
          "indexed": true,
          "internalType": "address",
          "name": "token",
          "type": "address"
        },
        {
          "indexed": true,
          "internalType": "address",
          "name": "from",
          "type": "address"
        },
        {
          "indexed": false,
          "internalType": "uint256",
          "name": "amount",
          "type": "uint256"
        }
      ],
      "name": "TokenReceived",
      "type": "event"
    },
    {
      "anonymous": false,
      "inputs": [
        {
          "indexed": true,
          "internalType": "address",
          "name": "tokenAddress",
          "type": "address"
        }
      ],
      "name": "TokenRegistered",
      "type": "event"
    },
    {
      "anonymous": false,
      "inputs": [
        {
          "indexed": true,
          "internalType": "address",
          "name": "token",
          "type": "address"
        },
        {
          "indexed": true,
          "internalType": "address",
          "name": "to",
          "type": "address"
        },
        {
          "indexed": false,
          "internalType": "uint256",
          "name": "amount",
          "type": "uint256"
        }
      ],
      "name": "TokenTransfer",
      "type": "event"
    },
    {
      "inputs": [],
      "name": "IID_RAHAT_PROJECT",
      "outputs": [
        {
          "internalType": "bytes4",
          "name": "",
          "type": "bytes4"
        }
      ],
      "stateMutability": "view",
      "type": "function"
    },
    {
      "inputs": [],
      "name": "RahatClaim",
      "outputs": [
        {
          "internalType": "contract IRahatClaim",
          "name": "",
          "type": "address"
        }
      ],
      "stateMutability": "view",
      "type": "function"
    },
    {
      "inputs": [
        {
          "internalType": "address",
          "name": "_from",
          "type": "address"
        },
        {
          "internalType": "uint256",
          "name": "_amount",
          "type": "uint256"
        }
      ],
      "name": "acceptToken",
      "outputs": [],
      "stateMutability": "nonpayable",
      "type": "function"
    },
    {
      "inputs": [
        {
          "internalType": "address",
          "name": "_address",
          "type": "address"
        }
      ],
      "name": "addBeneficiary",
      "outputs": [],
      "stateMutability": "nonpayable",
      "type": "function"
    },
    {
      "inputs": [
        {
          "internalType": "address",
          "name": "_address",
          "type": "address"
        },
        {
          "internalType": "uint256",
          "name": "_claimAmount",
          "type": "uint256"
        }
      ],
      "name": "assignClaims",
      "outputs": [],
      "stateMutability": "nonpayable",
      "type": "function"
    },
    {
      "inputs": [
        {
          "internalType": "address",
          "name": "",
          "type": "address"
        }
      ],
      "name": "beneficiaryClaims",
      "outputs": [
        {
          "internalType": "uint256",
          "name": "",
          "type": "uint256"
        }
      ],
      "stateMutability": "view",
      "type": "function"
    },
    {
      "inputs": [],
      "name": "beneficiaryCount",
      "outputs": [
        {
          "internalType": "uint256",
          "name": "",
          "type": "uint256"
        }
      ],
      "stateMutability": "view",
      "type": "function"
    },
    {
      "inputs": [],
      "name": "defaultToken",
      "outputs": [
        {
          "internalType": "address",
          "name": "",
          "type": "address"
        }
      ],
      "stateMutability": "view",
      "type": "function"
    },
    {
      "inputs": [
        {
          "internalType": "address",
          "name": "_address",
          "type": "address"
        }
      ],
      "name": "isBeneficiary",
      "outputs": [
        {
          "internalType": "bool",
          "name": "",
          "type": "bool"
        }
      ],
      "stateMutability": "view",
      "type": "function"
    },
    {
      "inputs": [
        {
          "internalType": "address",
          "name": "",
          "type": "address"
        }
      ],
      "name": "isDonor",
      "outputs": [
        {
          "internalType": "bool",
          "name": "",
          "type": "bool"
        }
      ],
      "stateMutability": "view",
      "type": "function"
    },
    {
      "inputs": [
        {
          "internalType": "address",
          "name": "forwarder",
          "type": "address"
        }
      ],
      "name": "isTrustedForwarder",
      "outputs": [
        {
          "internalType": "bool",
          "name": "",
          "type": "bool"
        }
      ],
      "stateMutability": "view",
      "type": "function"
    },
    {
      "inputs": [
        {
          "internalType": "bytes[]",
          "name": "data",
          "type": "bytes[]"
        }
      ],
      "name": "multicall",
      "outputs": [
        {
          "internalType": "bytes[]",
          "name": "results",
          "type": "bytes[]"
        }
      ],
      "stateMutability": "nonpayable",
      "type": "function"
    },
    {
      "inputs": [],
      "name": "name",
      "outputs": [
        {
          "internalType": "string",
          "name": "",
          "type": "string"
        }
      ],
      "stateMutability": "view",
      "type": "function"
    },
    {
      "inputs": [],
      "name": "otpServerAddress",
      "outputs": [
        {
          "internalType": "address",
          "name": "",
          "type": "address"
        }
      ],
      "stateMutability": "view",
      "type": "function"
    },
    {
      "inputs": [
        {
          "internalType": "address",
          "name": "_benAddress",
          "type": "address"
        },
        {
          "internalType": "string",
          "name": "_otp",
          "type": "string"
        }
      ],
      "name": "processTokenRequest",
      "outputs": [],
      "stateMutability": "nonpayable",
      "type": "function"
    },
    {
      "inputs": [
        {
          "internalType": "address",
          "name": "_address",
          "type": "address"
        }
      ],
      "name": "removeBeneficiary",
      "outputs": [],
      "stateMutability": "nonpayable",
      "type": "function"
    },
    {
      "inputs": [
        {
          "internalType": "address",
          "name": "_benAddress",
          "type": "address"
        },
        {
          "internalType": "uint256",
          "name": "_amount",
          "type": "uint256"
        },
        {
          "internalType": "address",
          "name": "_otpServerAddress",
          "type": "address"
        }
      ],
      "name": "requestTokenFromBeneficiary",
      "outputs": [
        {
          "internalType": "uint256",
          "name": "requestId",
          "type": "uint256"
        }
      ],
      "stateMutability": "nonpayable",
      "type": "function"
    },
    {
      "inputs": [
        {
          "internalType": "address",
          "name": "_benAddress",
          "type": "address"
        },
        {
          "internalType": "uint256",
          "name": "_amount",
          "type": "uint256"
        }
      ],
      "name": "requestTokenFromBeneficiary",
      "outputs": [
        {
          "internalType": "uint256",
          "name": "requestId",
          "type": "uint256"
        }
      ],
      "stateMutability": "nonpayable",
      "type": "function"
    },
    {
      "inputs": [
        {
          "internalType": "address",
          "name": "_benAddress",
          "type": "address"
        },
        {
          "internalType": "address",
          "name": "_vendorAddress",
          "type": "address"
        },
        {
          "internalType": "uint256",
          "name": "_amount",
          "type": "uint256"
        }
      ],
      "name": "sendBeneficiaryTokenToVendor",
      "outputs": [],
      "stateMutability": "nonpayable",
      "type": "function"
    },
    {
      "inputs": [
        {
          "internalType": "bytes4",
          "name": "interfaceId",
          "type": "bytes4"
        }
      ],
      "name": "supportsInterface",
      "outputs": [
        {
          "internalType": "bool",
          "name": "",
          "type": "bool"
        }
      ],
      "stateMutability": "view",
      "type": "function"
    },
    {
      "inputs": [
        {
          "internalType": "address",
          "name": "_tokenAddress",
          "type": "address"
        }
      ],
      "name": "tokenBudget",
      "outputs": [
        {
          "internalType": "uint256",
          "name": "",
          "type": "uint256"
        }
      ],
      "stateMutability": "view",
      "type": "function"
    },
    {
      "inputs": [
        {
          "internalType": "address",
          "name": "",
          "type": "address"
        },
        {
          "internalType": "address",
          "name": "",
          "type": "address"
        }
      ],
      "name": "tokenRequestIds",
      "outputs": [
        {
          "internalType": "uint256",
          "name": "",
          "type": "uint256"
        }
      ],
      "stateMutability": "view",
      "type": "function"
    },
    {
      "inputs": [],
      "name": "totalClaimsAssgined",
      "outputs": [
        {
          "internalType": "uint256",
          "name": "_totalClaims",
          "type": "uint256"
        }
      ],
      "stateMutability": "view",
      "type": "function"
    },
    {
      "inputs": [],
      "name": "trustedForwarder",
      "outputs": [
        {
          "internalType": "address",
          "name": "",
          "type": "address"
        }
      ],
      "stateMutability": "view",
      "type": "function"
    },
    {
      "inputs": [
        {
          "internalType": "address",
          "name": "_address",
          "type": "address"
        }
      ],
      "name": "updateOtpServer",
      "outputs": [],
      "stateMutability": "nonpayable",
      "type": "function"
    },
    {
      "inputs": [
        {
          "internalType": "address",
          "name": "_token",
          "type": "address"
        },
        {
          "internalType": "address",
          "name": "_withdrawAddress",
          "type": "address"
        }
      ],
      "name": "withdrawToken",
      "outputs": [],
      "stateMutability": "nonpayable",
      "type": "function"
    }
  ],
  "bytecode": "0x60a06040523480156200001157600080fd5b5060405162001f7038038062001f708339810160408190526200003491620000c4565b8085600262000044828262000273565b50506001600160a01b03908116608052600580546001600160a01b03199081169683169690961790556006805486169482169490941790935550600780549093169116179055506200033f565b634e487b7160e01b600052604160045260246000fd5b80516001600160a01b0381168114620000bf57600080fd5b919050565b600080600080600060a08688031215620000dd57600080fd5b85516001600160401b0380821115620000f557600080fd5b818801915088601f8301126200010a57600080fd5b8151818111156200011f576200011f62000091565b604051601f8201601f19908116603f011681019083821181831017156200014a576200014a62000091565b81604052828152602093508b848487010111156200016757600080fd5b600091505b828210156200018b57848201840151818301850152908301906200016c565b6000848483010152809950505050620001a6818901620000a7565b95505050620001b860408701620000a7565b9250620001c860608701620000a7565b9150620001d860808701620000a7565b90509295509295909350565b600181811c90821680620001f957607f821691505b6020821081036200021a57634e487b7160e01b600052602260045260246000fd5b50919050565b601f8211156200026e57600081815260208120601f850160051c81016020861015620002495750805b601f850160051c820191505b818110156200026a5782815560010162000255565b5050505b505050565b81516001600160401b038111156200028f576200028f62000091565b620002a781620002a08454620001e4565b8462000220565b602080601f831160018114620002df5760008415620002c65750858301515b600019600386901b1c1916600185901b1785556200026a565b600085815260208120601f198616915b828110156200031057888601518255948401946001909101908401620002ef565b50858210156200032f5787850151600019600388901b60f8161c191681555b5050505050600190811b01905550565b608051611c0762000369600039600081816102e10152818161038d01526113250152611c076000f3fe608060405234801561001057600080fd5b506004361061018d5760003560e01c80635bc4a451116100de578063800fff3e11610097578063d45871a611610071578063d45871a614610404578063e6ea615d14610417578063e9ecec5e1461042a578063eb681e621461043d57600080fd5b8063800fff3e146103b15780639d19b226146103d1578063ac9650d8146103e457600080fd5b80635bc4a4511461033757806364c20dc11461034a578063734b2a7c1461035d57806374c13fda146103655780637b365753146103785780637da0a8771461038b57600080fd5b80633aeac4e11161014b5780634fe21571116101255780634fe21571146102aa578063572b6c05146102d15780635926651d1461031157806359633a1c1461032457600080fd5b80633aeac4e11461027c5780633eb6c8931461028f5780634a8d07e01461029757600080fd5b8062d008c61461019257806301ffc9a7146101d057806306fdde03146102045780631483f917146102195780632adc6f351461022e5780632bc3d7aa14610259575b600080fd5b6101bd6101a0366004611590565b600a60209081526000928352604080842090915290825290205481565b6040519081526020015b60405180910390f35b6101f46101de3660046115c9565b6001600160e01b0319166301c1039d60e11b1490565b60405190151581526020016101c7565b61020c610466565b6040516101c79190611643565b61022c610227366004611656565b6104f4565b005b600754610241906001600160a01b031681565b6040516001600160a01b0390911681526020016101c7565b6101f4610267366004611682565b60086020526000908152604090205460ff1681565b61022c61028a366004611590565b61052b565b6101bd6105a8565b61022c6102a5366004611710565b610608565b6102b86301c1039d60e11b81565b6040516001600160e01b031990911681526020016101c7565b6101f46102df366004611682565b7f00000000000000000000000000000000000000000000000000000000000000006001600160a01b0390811691161490565b61022c61031f366004611682565b6106eb565b61022c610332366004611682565b6106f7565b6101bd6103453660046117b8565b61070b565b61022c610358366004611656565b6108be565b6101bd6108d1565b600554610241906001600160a01b031681565b600654610241906001600160a01b031681565b7f0000000000000000000000000000000000000000000000000000000000000000610241565b6101bd6103bf366004611682565b60096020526000908152604090205481565b6101f46103df366004611682565b6108e2565b6103f76103f23660046117fa565b6108f5565b6040516101c7919061186f565b61022c6104123660046118d1565b610a5f565b61022c610425366004611682565b610ac0565b6101bd610438366004611656565b610bf4565b6101bd61044b366004611682565b6001600160a01b031660009081526020819052604090205490565b6002805461047390611912565b80601f016020809104026020016040519081016040528092919081815260200182805461049f90611912565b80156104ec5780601f106104c1576101008083540402835291602001916104ec565b820191906000526020600020905b8154815290600101906020018083116104cf57829003601f168201915b505050505081565b6001600160a01b038083166000908152600860205260409020805460ff1916600117905560055461052791168383610c17565b5050565b6040516370a0823160e01b81523060048201526000906001600160a01b038416906370a0823190602401602060405180830381865afa158015610572573d6000803e3d6000fd5b505050506040513d601f19601f82011682018060405250810190610596919061194c565b90506105a3838284610ced565b505050565b6000805b6105b66003610d3c565b81101561060457600960006105cc600384610d46565b6001600160a01b031681526020810191909152604001600020546105f0908361197b565b9150806105fc8161198e565b9150506105ac565b5090565b6006546000906001600160a01b0316630a5eccd3600a83610627610d52565b6001600160a01b03166001600160a01b031681526020019081526020016000206000866001600160a01b03166001600160a01b0316815260200190815260200160002054846040518363ffffffff1660e01b81526004016106899291906119a7565b610120604051808303816000875af11580156106a9573d6000803e3d6000fd5b505050506040513d601f19601f820116820180604052508101906106cd91906119e8565b90506105a38160800151826040015183602001518460a00151610d5c565b6106f481610ef3565b50565b61070081610f42565b6106f4816000610f92565b6007546000906001600160a01b03166107605760405162461bcd60e51b815260206004820152601260248201527134b73b30b634b21037ba3816b9b2b93b32b960711b60448201526064015b60405180910390fd5b6001600160a01b0384166000908152600960205260409020548311156107bd5760405162461bcd60e51b81526020600482015260126024820152716e6f7420656e6f7567682062616c616e636560701b6044820152606401610757565b6006546001600160a01b03166323fe50a36107d6610d52565b60055460405160e084901b6001600160e01b03191681526001600160a01b03928316600482015282891660248201528287166044820152911660648201526084810186905260a4016020604051808303816000875af115801561083d573d6000803e3d6000fd5b505050506040513d601f19601f82011682018060405250810190610861919061194c565b905080600a6000610870610d52565b6001600160a01b03166001600160a01b031681526020019081526020016000206000866001600160a01b03166001600160a01b03168152602001908152602001600020819055509392505050565b6108c782610ef3565b6105278282610f92565b60006108dd6003610d3c565b905090565b60006108ef600383611109565b92915050565b60606000610901610d52565b6001600160a01b0316336001600160a01b03161461096c57600036610927601482611a89565b610932928290611a9c565b8080601f01602080910402602001604051908101604052809392919081815260200183838082843760009201919091525061097c92505050565b6040805160008152602081019091525b90508267ffffffffffffffff8111156109975761099761169f565b6040519080825280602002602001820160405280156109ca57816020015b60608152602001906001900390816109b55790505b50915060005b83811015610a5757610a27308686848181106109ee576109ee611ac6565b9050602002810190610a009190611adc565b85604051602001610a1393929190611b2a565b60405160208183030381529060405261112b565b838281518110610a3957610a39611ac6565b60200260200101819052508080610a4f9061198e565b9150506109d0565b505092915050565b6007546001600160a01b03163314610aa85760405162461bcd60e51b815260206004820152600c60248201526b1d5b985d5d1a1bdc9a5e995960a21b6044820152606401610757565b6005546105a3906001600160a01b0316848484610d5c565b6001600160a01b038116610b085760405162461bcd60e51b815260206004820152600f60248201526e696e76616c6964206164647265737360881b6044820152606401610757565b306001600160a01b03821603610b605760405162461bcd60e51b815260206004820152601a60248201527f63616e6e6f7420626520636f6e747261637420616464726573730000000000006044820152606401610757565b6007546001600160a01b0390811690821603610baa5760405162461bcd60e51b81526020600482015260096024820152686e6f206368616e676560b81b6044820152606401610757565b600780546001600160a01b0319166001600160a01b0383169081179091556040517f98f76a4e8c95145ebb341a2d4f0f5a023ae301dd6ac3518036bc41e3215daf8690600090a250565b600754600090610c1090849084906001600160a01b031661070b565b9392505050565b6040516323b872dd60e01b81526001600160a01b038381166004830152306024830152604482018390528416906323b872dd906064016020604051808303816000875af1158015610c6c573d6000803e3d6000fd5b505050506040513d601f19601f82011682018060405250810190610c909190611b51565b50610c9b83826111a1565b816001600160a01b0316836001600160a01b03167fa83965f0e7c5e026e57c9ba2dd91e4ebcca352f2d514498c1e9ed23ba653860083604051610ce091815260200190565b60405180910390a3505050565b610cf7838361127c565b806001600160a01b0316836001600160a01b03167fd0ed88a3f042c6bbb1e3ea406079b5f2b4b198afccaa535d837f4c63abbc4de684604051610ce091815260200190565b60006108ef825490565b6000610c1083836112eb565b60006108dd611315565b6001600160a01b038316600090815260096020526040902054811115610db85760405162461bcd60e51b81526020600482015260116024820152706e6f7420656e6f7567682062616c61636560781b6044820152606401610757565b6001600160a01b03831660009081526009602052604081208054839290610de0908490611a89565b909155505060405163a9059cbb60e01b81526001600160a01b0383811660048301526024820183905285169063a9059cbb906044016020604051808303816000875af1158015610e34573d6000803e3d6000fd5b505050506040513d601f19601f82011682018060405250810190610e589190611b51565b610e965760405162461bcd60e51b815260206004820152600f60248201526e1d1c985b9cd9995c8819985a5b1959608a1b6044820152606401610757565b836001600160a01b0316826001600160a01b0316846001600160a01b03167f74e9b2045d760af893c7ec3a670bee3bbbce2a7a75d7fee326cb022efceb030b84604051610ee591815260200190565b60405180910390a450505050565b610efe600382611109565b610f37576040516001600160a01b038216907fc3e089fc6227e049d0e41c3d7a383d57efe69c1955c5752f7e5a9b5f1f11302090600090a25b61052760038261138a565b610f4d600382611109565b15610f87576040516001600160a01b038216907f72977dad29432f655f11c2f0e72ef5124bb9ade7a512fb7a43a9f504df22342890600090a25b61052760038261139f565b80610f9b6105a8565b610fa5919061197b565b6005546040516370a0823160e01b81523060048201526001600160a01b03909116906370a0823190602401602060405180830381865afa158015610fed573d6000803e3d6000fd5b505050506040513d601f19601f82011682018060405250810190611011919061194c565b10156110535760405162461bcd60e51b81526020600482015260116024820152706e6f7420656e6f75676820746f6b656e7360781b6044820152606401610757565b6001600160a01b03821660008181526009602090815260409182902080549085905591518481529192917f4631d14d4c16b9460d34e65ad5f88348611250f573857337076bcb9634d685bb910160405180910390a260006110b48284611a89565b90508015611103576001600160a01b0384167f637d043db1bebc50c6963e49f55ac40fbec77eb544a8df2c4aaa4b9ee1ceb4e96110f18486611a89565b60405190815260200160405180910390a25b50505050565b6001600160a01b03811660009081526001830160205260408120541515610c10565b6060600080846001600160a01b0316846040516111489190611b6c565b600060405180830381855af49150503d8060008114611183576040519150601f19603f3d011682016040523d82523d6000602084013e611188565b606091505b50915091506111988583836113b4565b95945050505050565b6001600160a01b038216600090815260208190526040812080548392906111c990849061197b565b90915550506040518181526001600160a01b038316907fe49f42d07d8046279c22af872fe6bc5678c4dfc38ace0f43b8e8d5a03d0e8f109060200160405180910390a26001600160a01b03821660009081526001602052604090205460ff16610527576001600160a01b0382166000818152600160208190526040808320805460ff1916909217909155517f158412daecdc1456d01568828bcdb18464cc7f1ce0215ddbc3f3cfede9d1e63d9190a25050565b6001600160a01b038216600090815260208190526040812080548392906112a4908490611a89565b90915550506040518181526001600160a01b038316907f854a0a098d6cafcdbf8cc91b503d29e40e31095273eec189216a6ed881543eb49060200160405180910390a25050565b600082600001828154811061130257611302611ac6565b9060005260206000200154905092915050565b6000366014336001600160a01b037f0000000000000000000000000000000000000000000000000000000000000000161480156113525750808210155b15611382576000366113648385611a89565b61136f928290611a9c565b61137891611b88565b60601c9250505090565b339250505090565b6000610c10836001600160a01b038416611410565b6000610c10836001600160a01b03841661145f565b6060826113c9576113c482611552565b610c10565b81511580156113e057506001600160a01b0384163b155b1561140957604051639996b31560e01b81526001600160a01b0385166004820152602401610757565b5092915050565b6000818152600183016020526040812054611457575081546001818101845560008481526020808220909301849055845484825282860190935260409020919091556108ef565b5060006108ef565b60008181526001830160205260408120548015611548576000611483600183611a89565b855490915060009061149790600190611a89565b90508082146114fc5760008660000182815481106114b7576114b7611ac6565b90600052602060002001549050808760000184815481106114da576114da611ac6565b6000918252602080832090910192909255918252600188019052604090208390555b855486908061150d5761150d611bbb565b6001900381819060005260206000200160009055905585600101600086815260200190815260200160002060009055600193505050506108ef565b60009150506108ef565b8051156115625780518082602001fd5b604051630a12f52160e11b815260040160405180910390fd5b6001600160a01b03811681146106f457600080fd5b600080604083850312156115a357600080fd5b82356115ae8161157b565b915060208301356115be8161157b565b809150509250929050565b6000602082840312156115db57600080fd5b81356001600160e01b031981168114610c1057600080fd5b60005b8381101561160e5781810151838201526020016115f6565b50506000910152565b6000815180845261162f8160208601602086016115f3565b601f01601f19169290920160200192915050565b602081526000610c106020830184611617565b6000806040838503121561166957600080fd5b82356116748161157b565b946020939093013593505050565b60006020828403121561169457600080fd5b8135610c108161157b565b634e487b7160e01b600052604160045260246000fd5b604051610120810167ffffffffffffffff811182821017156116d9576116d961169f565b60405290565b604051601f8201601f1916810167ffffffffffffffff811182821017156117085761170861169f565b604052919050565b6000806040838503121561172357600080fd5b823561172e8161157b565b915060208381013567ffffffffffffffff8082111561174c57600080fd5b818601915086601f83011261176057600080fd5b8135818111156117725761177261169f565b611784601f8201601f191685016116df565b9150808252878482850101111561179a57600080fd5b80848401858401376000848284010152508093505050509250929050565b6000806000606084860312156117cd57600080fd5b83356117d88161157b565b92506020840135915060408401356117ef8161157b565b809150509250925092565b6000806020838503121561180d57600080fd5b823567ffffffffffffffff8082111561182557600080fd5b818501915085601f83011261183957600080fd5b81358181111561184857600080fd5b8660208260051b850101111561185d57600080fd5b60209290920196919550909350505050565b6000602080830181845280855180835260408601915060408160051b870101925083870160005b828110156118c457603f198886030184526118b2858351611617565b94509285019290850190600101611896565b5092979650505050505050565b6000806000606084860312156118e657600080fd5b83356118f18161157b565b925060208401356119018161157b565b929592945050506040919091013590565b600181811c9082168061192657607f821691505b60208210810361194657634e487b7160e01b600052602260045260246000fd5b50919050565b60006020828403121561195e57600080fd5b5051919050565b634e487b7160e01b600052601160045260246000fd5b808201808211156108ef576108ef611965565b6000600182016119a0576119a0611965565b5060010190565b8281526040602082015260006119c06040830184611617565b949350505050565b80516119d38161157b565b919050565b805180151581146119d357600080fd5b600061012082840312156119fb57600080fd5b611a036116b5565b611a0c836119c8565b8152611a1a602084016119c8565b6020820152611a2b604084016119c8565b6040820152611a3c606084016119c8565b6060820152611a4d608084016119c8565b608082015260a083015160a082015260c083015160c082015260e083015160e0820152610100611a7e8185016119d8565b908201529392505050565b818103818111156108ef576108ef611965565b60008085851115611aac57600080fd5b83861115611ab957600080fd5b5050820193919092039150565b634e487b7160e01b600052603260045260246000fd5b6000808335601e19843603018112611af357600080fd5b83018035915067ffffffffffffffff821115611b0e57600080fd5b602001915036819003821315611b2357600080fd5b9250929050565b828482376000838201600081528351611b478183602088016115f3565b0195945050505050565b600060208284031215611b6357600080fd5b610c10826119d8565b60008251611b7e8184602087016115f3565b9190910192915050565b6bffffffffffffffffffffffff198135818116916014851015610a575760149490940360031b84901b1690921692915050565b634e487b7160e01b600052603160045260246000fdfea264697066735822122068fdd2f3b542241e282093e92bdba3388ed73a5fc617b019d0268807a9d7130b64736f6c63430008140033",
  "linkReferences": {},
  "deployedLinkReferences": {}
}