{
  "_format": "hh-sol-artifact-1",
  "contractName": "RahatClaim",
  "sourceName": "src/contracts/RahatClaim.sol",
  "abi": [
    {
      "inputs": [
        {
          "internalType": "address",
          "name": "target",
          "type": "address"
        }
      ],
      "name": "AddressEmptyCode",
      "type": "error"
    },
    {
      "inputs": [],
      "name": "FailedInnerCall",
      "type": "error"
    },
    {
      "anonymous": false,
      "inputs": [
        {
          "indexed": true,
          "internalType": "uint256",
          "name": "claimId",
          "type": "uint256"
        },
        {
          "indexed": true,
          "internalType": "address",
          "name": "claimer",
          "type": "address"
        },
        {
          "indexed": true,
          "internalType": "address",
          "name": "claimee",
          "type": "address"
        },
        {
          "indexed": false,
          "internalType": "address",
          "name": "token",
          "type": "address"
        },
        {
          "indexed": false,
          "internalType": "address",
          "name": "otpServer",
          "type": "address"
        },
        {
          "indexed": false,
          "internalType": "uint256",
          "name": "amount",
          "type": "uint256"
        }
      ],
      "name": "ClaimCreated",
      "type": "event"
    },
    {
      "anonymous": false,
      "inputs": [
        {
          "indexed": true,
          "internalType": "uint256",
          "name": "claimId",
          "type": "uint256"
        }
      ],
      "name": "ClaimProcessed",
      "type": "event"
    },
    {
      "anonymous": false,
      "inputs": [
        {
          "indexed": true,
          "internalType": "uint256",
          "name": "claimId",
          "type": "uint256"
        }
      ],
      "name": "OtpAddedToClaim",
      "type": "event"
    },
    {
      "inputs": [
        {
          "internalType": "uint256",
          "name": "_claimId",
          "type": "uint256"
        },
        {
          "internalType": "bytes32",
          "name": "_otpHash",
          "type": "bytes32"
        },
        {
          "internalType": "uint256",
          "name": "_expiryDate",
          "type": "uint256"
        }
      ],
      "name": "addOtpToClaim",
      "outputs": [],
      "stateMutability": "nonpayable",
      "type": "function"
    },
    {
      "inputs": [],
      "name": "claimCount",
      "outputs": [
        {
          "internalType": "uint256",
          "name": "",
          "type": "uint256"
        }
      ],
      "stateMutability": "view",
      "type": "function"
    },
    {
      "inputs": [
        {
          "internalType": "uint256",
          "name": "",
          "type": "uint256"
        }
      ],
      "name": "claims",
      "outputs": [
        {
          "internalType": "address",
          "name": "ownerAddress",
          "type": "address"
        },
        {
          "internalType": "address",
          "name": "claimerAddress",
          "type": "address"
        },
        {
          "internalType": "address",
          "name": "claimeeAddress",
          "type": "address"
        },
        {
          "internalType": "address",
          "name": "otpServerAddress",
          "type": "address"
        },
        {
          "internalType": "address",
          "name": "tokenAddress",
          "type": "address"
        },
        {
          "internalType": "uint256",
          "name": "amount",
          "type": "uint256"
        },
        {
          "internalType": "uint256",
          "name": "expiryDate",
          "type": "uint256"
        },
        {
          "internalType": "bytes32",
          "name": "otpHash",
          "type": "bytes32"
        },
        {
          "internalType": "bool",
          "name": "isProcessed",
          "type": "bool"
        }
      ],
      "stateMutability": "view",
      "type": "function"
    },
    {
      "inputs": [
        {
          "internalType": "address",
          "name": "_claimerAddress",
          "type": "address"
        },
        {
          "internalType": "address",
          "name": "_claimeeAddress",
          "type": "address"
        },
        {
          "internalType": "address",
          "name": "_otpServerAddress",
          "type": "address"
        },
        {
          "internalType": "address",
          "name": "_tokenAddress",
          "type": "address"
        },
        {
          "internalType": "uint256",
          "name": "_amount",
          "type": "uint256"
        }
      ],
      "name": "createClaim",
      "outputs": [
        {
          "internalType": "uint256",
          "name": "claimId",
          "type": "uint256"
        }
      ],
      "stateMutability": "nonpayable",
      "type": "function"
    },
    {
      "inputs": [
        {
          "internalType": "string",
          "name": "_data",
          "type": "string"
        }
      ],
      "name": "findHash",
      "outputs": [
        {
          "internalType": "bytes32",
          "name": "",
          "type": "bytes32"
        }
      ],
      "stateMutability": "pure",
      "type": "function"
    },
    {
      "inputs": [
        {
          "internalType": "bytes[]",
          "name": "data",
          "type": "bytes[]"
        }
      ],
      "name": "multicall",
      "outputs": [
        {
          "internalType": "bytes[]",
          "name": "results",
          "type": "bytes[]"
        }
      ],
      "stateMutability": "nonpayable",
      "type": "function"
    },
    {
      "inputs": [
        {
          "internalType": "uint256",
          "name": "_claimId",
          "type": "uint256"
        },
        {
          "internalType": "string",
          "name": "_otp",
          "type": "string"
        }
      ],
      "name": "processClaim",
      "outputs": [
        {
          "components": [
            {
              "internalType": "address",
              "name": "ownerAddress",
              "type": "address"
            },
            {
              "internalType": "address",
              "name": "claimerAddress",
              "type": "address"
            },
            {
              "internalType": "address",
              "name": "claimeeAddress",
              "type": "address"
            },
            {
              "internalType": "address",
              "name": "otpServerAddress",
              "type": "address"
            },
            {
              "internalType": "address",
              "name": "tokenAddress",
              "type": "address"
            },
            {
              "internalType": "uint256",
              "name": "amount",
              "type": "uint256"
            },
            {
              "internalType": "uint256",
              "name": "expiryDate",
              "type": "uint256"
            },
            {
              "internalType": "bytes32",
              "name": "otpHash",
              "type": "bytes32"
            },
            {
              "internalType": "bool",
              "name": "isProcessed",
              "type": "bool"
            }
          ],
          "internalType": "struct IRahatClaim.Claim",
          "name": "claim_",
          "type": "tuple"
        }
      ],
      "stateMutability": "nonpayable",
      "type": "function"
    }
  ],
  "bytecode": "0x608060405234801561001057600080fd5b50610d1f806100206000396000f3fe608060405234801561001057600080fd5b506004361061007d5760003560e01c806370c751071161005b57806370c75107146100e15780638da4d3c9146100f4578063a888c2cd146100fd578063ac9650d8146101c657600080fd5b80630a5eccd31461008257806323fe50a3146100ab57806356844801146100cc575b600080fd5b610095610090366004610946565b6101e6565b6040516100a2919061098d565b60405180910390f35b6100be6100b9366004610a22565b61041a565b6040519081526020016100a2565b6100df6100da366004610a7e565b610597565b005b6100be6100ef366004610aaa565b610682565b6100be60015481565b61016b61010b366004610ae7565b6000602081905290815260409020805460018201546002830154600384015460048501546005860154600687015460078801546008909801546001600160a01b039788169896881697958616969486169590931693919290919060ff1689565b604080516001600160a01b039a8b168152988a1660208a015296891696880196909652938716606087015295909116608085015260a084015260c083019390935260e0820192909252901515610100820152610120016100a2565b6101d96101d4366004610b00565b6106b2565b6040516100a29190610b99565b6040805161012081018252600080825260208201819052918101829052606081018290526080810182905260a0810182905260c0810182905260e08101829052610100810191909152600083815260208190526040902080546001600160a01b031633146102875760405162461bcd60e51b81526020600482015260096024820152683737ba1037bbb732b960b91b60448201526064015b60405180910390fd5b80600601544211156102c55760405162461bcd60e51b8152602060048201526007602482015266195e1c1a5c995960ca1b604482015260640161027e565b600881015460ff161561030e5760405162461bcd60e51b8152602060048201526011602482015270185b1c9958591e481c1c9bd8d95cdcd959607a1b604482015260640161027e565b600061031984610682565b90508082600701541461035c5760405162461bcd60e51b815260206004820152600b60248201526a0696e76616c6964206f74760ac1b604482015260640161027e565b60088201805460ff1916600117905560405185907fbe0c20f17a3125f7c3275eb0114bd2983f5238faf9e28bd76b26a057bc62924690600090a250604080516101208101825282546001600160a01b039081168252600184015481166020830152600284015481169282019290925260038301548216606082015260048301549091166080820152600582015460a0820152600682015460c0820152600782015460e082015260089091015460ff1615156101008201529392505050565b600060016000815461042b90610c29565b918290555060408051610120810182523381526001600160a01b0389811660208084018281528b84168587018181528c8616606088019081528c87166080890190815260a089018d8152600060c08b0181815260e08c018281526101008d018381528f845299839052918d90209b518c54908c166001600160a01b0319918216178d55975160018d018054918d16918a16919091179055945160028c018054918c16918916919091179055925160038b018054918b16918816919091179055905160048a01805491909916951694909417909655915160058701559051600686015592516007850155516008909301805493151560ff1994909416939093179092559151929350909183907f023e9f09da66b06deffa05a3096c360190711e142a462db17febf36f552e087b906105869088908a9089906001600160a01b039384168152919092166020820152604081019190915260600190565b60405180910390a495945050505050565b600083815260208190526040902060038101546001600160a01b031633146105fa5760405162461bcd60e51b81526020600482015260166024820152753ab730baba3437b934bd32b21037ba3829b2b93b32b960511b604482015260640161027e565b600881015460ff16156106435760405162461bcd60e51b8152602060048201526011602482015270185b1c9958591e481c1c9bd8d95cdcd959607a1b604482015260640161027e565b600681018290556007810183905560405184907feab1e5f414e5056fca992d2f9323350fbf7d861790088fe15b91fa53dbeb41ef90600090a250505050565b6000816040516020016106959190610c42565b604051602081830303815290604052805190602001209050919050565b6040805160008152602081019091526060908267ffffffffffffffff8111156106dd576106dd6108a3565b60405190808252806020026020018201604052801561071057816020015b60608152602001906001900390816106fb5790505b50915060005b8381101561079d5761076d3086868481811061073457610734610c5e565b90506020028101906107469190610c74565b8560405160200161075993929190610cc2565b6040516020818303038152906040526107a5565b83828151811061077f5761077f610c5e565b6020026020010181905250808061079590610c29565b915050610716565b505092915050565b6060600080846001600160a01b0316846040516107c29190610c42565b600060405180830381855af49150503d80600081146107fd576040519150601f19603f3d011682016040523d82523d6000602084013e610802565b606091505b509150915061081285838361081b565b95945050505050565b6060826108305761082b8261087a565b610873565b815115801561084757506001600160a01b0384163b155b1561087057604051639996b31560e01b81526001600160a01b038516600482015260240161027e565b50805b9392505050565b80511561088a5780518082602001fd5b604051630a12f52160e11b815260040160405180910390fd5b634e487b7160e01b600052604160045260246000fd5b600082601f8301126108ca57600080fd5b813567ffffffffffffffff808211156108e5576108e56108a3565b604051601f8301601f19908116603f0116810190828211818310171561090d5761090d6108a3565b8160405283815286602085880101111561092657600080fd5b836020870160208301376000602085830101528094505050505092915050565b6000806040838503121561095957600080fd5b82359150602083013567ffffffffffffffff81111561097757600080fd5b610983858286016108b9565b9150509250929050565b81516001600160a01b039081168252602080840151821690830152604080840151821690830152606080840151821690830152608080840151918216908301526101208201905060a083015160a083015260c083015160c083015260e083015160e08301526101008084015161079d8285018215159052565b80356001600160a01b0381168114610a1d57600080fd5b919050565b600080600080600060a08688031215610a3a57600080fd5b610a4386610a06565b9450610a5160208701610a06565b9350610a5f60408701610a06565b9250610a6d60608701610a06565b949793965091946080013592915050565b600080600060608486031215610a9357600080fd5b505081359360208301359350604090920135919050565b600060208284031215610abc57600080fd5b813567ffffffffffffffff811115610ad357600080fd5b610adf848285016108b9565b949350505050565b600060208284031215610af957600080fd5b5035919050565b60008060208385031215610b1357600080fd5b823567ffffffffffffffff80821115610b2b57600080fd5b818501915085601f830112610b3f57600080fd5b813581811115610b4e57600080fd5b8660208260051b8501011115610b6357600080fd5b60209290920196919550909350505050565b60005b83811015610b90578181015183820152602001610b78565b50506000910152565b6000602080830181845280855180835260408601915060408160051b870101925083870160005b82811015610c0657878503603f1901845281518051808752610be7818989018a8501610b75565b601f01601f191695909501860194509285019290850190600101610bc0565b5092979650505050505050565b634e487b7160e01b600052601160045260246000fd5b600060018201610c3b57610c3b610c13565b5060010190565b60008251610c54818460208701610b75565b9190910192915050565b634e487b7160e01b600052603260045260246000fd5b6000808335601e19843603018112610c8b57600080fd5b83018035915067ffffffffffffffff821115610ca657600080fd5b602001915036819003821315610cbb57600080fd5b9250929050565b828482376000838201600081528351610cdf818360208801610b75565b019594505050505056fea26469706673582212204cf4cfb5bd804c43960d5c56fbcaec3b43201b5775172eb022b9b485dbe1ee3064736f6c63430008140033",
  "linkReferences": {},
  "deployedLinkReferences": {}
}