{
  "_format": "hh-sol-artifact-1",
  "contractName": "RahatDonor",
  "sourceName": "src/contracts/RahatDonor.sol",
  "abi": [
    {
      "inputs": [
        {
          "internalType": "address",
          "name": "_admin",
          "type": "address"
        }
      ],
      "stateMutability": "nonpayable",
      "type": "constructor"
    },
    {
      "inputs": [
        {
          "internalType": "address",
          "name": "target",
          "type": "address"
        }
      ],
      "name": "AddressEmptyCode",
      "type": "error"
    },
    {
      "inputs": [],
      "name": "FailedInnerCall",
      "type": "error"
    },
    {
      "anonymous": false,
      "inputs": [
        {
          "indexed": true,
          "internalType": "address",
          "name": "",
          "type": "address"
        }
      ],
      "name": "OwnerAdded",
      "type": "event"
    },
    {
      "anonymous": false,
      "inputs": [
        {
          "indexed": true,
          "internalType": "address",
          "name": "",
          "type": "address"
        }
      ],
      "name": "OwnerRemoved",
      "type": "event"
    },
    {
      "anonymous": false,
      "inputs": [
        {
          "indexed": true,
          "internalType": "address",
          "name": "tokenAddress",
          "type": "address"
        }
      ],
      "name": "TokenCreated",
      "type": "event"
    },
    {
      "anonymous": false,
      "inputs": [
        {
          "indexed": true,
          "internalType": "address",
          "name": "tokenAddress",
          "type": "address"
        },
        {
          "indexed": true,
          "internalType": "address",
          "name": "approveAddress",
          "type": "address"
        },
        {
          "indexed": false,
          "internalType": "uint256",
          "name": "amount",
          "type": "uint256"
        }
      ],
      "name": "TokenMintedAndApproved",
      "type": "event"
    },
    {
      "inputs": [],
      "name": "IID_RAHAT_DONOR",
      "outputs": [
        {
          "internalType": "bytes4",
          "name": "",
          "type": "bytes4"
        }
      ],
      "stateMutability": "view",
      "type": "function"
    },
    {
      "inputs": [
        {
          "internalType": "address",
          "name": "_address",
          "type": "address"
        }
      ],
      "name": "addOwner",
      "outputs": [
        {
          "internalType": "bool",
          "name": "success",
          "type": "bool"
        }
      ],
      "stateMutability": "nonpayable",
      "type": "function"
    },
    {
      "inputs": [
        {
          "internalType": "address",
          "name": "_token",
          "type": "address"
        },
        {
          "internalType": "address",
          "name": "_ownerAddress",
          "type": "address"
        }
      ],
      "name": "addTokenOwner",
      "outputs": [],
      "stateMutability": "nonpayable",
      "type": "function"
    },
    {
      "inputs": [
        {
          "internalType": "address",
          "name": "_token",
          "type": "address"
        },
        {
          "internalType": "address",
          "name": "_spender",
          "type": "address"
        },
        {
          "internalType": "uint256",
          "name": "_amount",
          "type": "uint256"
        }
      ],
      "name": "approveToken",
      "outputs": [],
      "stateMutability": "nonpayable",
      "type": "function"
    },
    {
      "inputs": [
        {
          "internalType": "address",
          "name": "_token",
          "type": "address"
        },
        {
          "internalType": "address",
          "name": "_from",
          "type": "address"
        },
        {
          "internalType": "uint256",
          "name": "_amount",
          "type": "uint256"
        }
      ],
      "name": "claimToken",
      "outputs": [],
      "stateMutability": "nonpayable",
      "type": "function"
    },
    {
      "inputs": [
        {
          "internalType": "string",
          "name": "_name",
          "type": "string"
        },
        {
          "internalType": "string",
          "name": "_symbol",
          "type": "string"
        },
        {
          "internalType": "uint8",
          "name": "decimals",
          "type": "uint8"
        }
      ],
      "name": "createToken",
      "outputs": [
        {
          "internalType": "address",
          "name": "",
          "type": "address"
        }
      ],
      "stateMutability": "nonpayable",
      "type": "function"
    },
    {
      "inputs": [
        {
          "internalType": "address",
          "name": "_token",
          "type": "address"
        },
        {
          "internalType": "address",
          "name": "_from",
          "type": "address"
        }
      ],
      "name": "getAllowanceAndBalance",
      "outputs": [
        {
          "internalType": "uint256",
          "name": "allowance",
          "type": "uint256"
        },
        {
          "internalType": "uint256",
          "name": "balance",
          "type": "uint256"
        }
      ],
      "stateMutability": "view",
      "type": "function"
    },
    {
      "inputs": [
        {
          "internalType": "address",
          "name": "_address",
          "type": "address"
        }
      ],
      "name": "isOwner",
      "outputs": [
        {
          "internalType": "bool",
          "name": "",
          "type": "bool"
        }
      ],
      "stateMutability": "view",
      "type": "function"
    },
    {
      "inputs": [],
      "name": "listOwners",
      "outputs": [
        {
          "internalType": "address[]",
          "name": "",
          "type": "address[]"
        }
      ],
      "stateMutability": "view",
      "type": "function"
    },
    {
      "inputs": [
        {
          "internalType": "address",
          "name": "_token",
          "type": "address"
        },
        {
          "internalType": "uint256",
          "name": "_amount",
          "type": "uint256"
        }
      ],
      "name": "mintToken",
      "outputs": [],
      "stateMutability": "nonpayable",
      "type": "function"
    },
    {
      "inputs": [
        {
          "internalType": "address",
          "name": "_token",
          "type": "address"
        },
        {
          "internalType": "address",
          "name": "_approveAddress",
          "type": "address"
        },
        {
          "internalType": "uint256",
          "name": "_amount",
          "type": "uint256"
        }
      ],
      "name": "mintTokenAndApprove",
      "outputs": [],
      "stateMutability": "nonpayable",
      "type": "function"
    },
    {
      "inputs": [
        {
          "internalType": "address",
          "name": "_token",
          "type": "address"
        },
        {
          "internalType": "address",
          "name": "_receiver",
          "type": "address"
        },
        {
          "internalType": "uint256",
          "name": "_amount",
          "type": "uint256"
        }
      ],
      "name": "mintTokenAndSend",
      "outputs": [],
      "stateMutability": "nonpayable",
      "type": "function"
    },
    {
      "inputs": [
        {
          "internalType": "bytes[]",
          "name": "data",
          "type": "bytes[]"
        }
      ],
      "name": "multicall",
      "outputs": [
        {
          "internalType": "bytes[]",
          "name": "results",
          "type": "bytes[]"
        }
      ],
      "stateMutability": "nonpayable",
      "type": "function"
    },
    {
      "inputs": [],
      "name": "ownerCount",
      "outputs": [
        {
          "internalType": "uint256",
          "name": "",
          "type": "uint256"
        }
      ],
      "stateMutability": "view",
      "type": "function"
    },
    {
      "inputs": [
        {
          "internalType": "address",
          "name": "_address",
          "type": "address"
        }
      ],
      "name": "removeOwner",
      "outputs": [
        {
          "internalType": "bool",
          "name": "success",
          "type": "bool"
        }
      ],
      "stateMutability": "nonpayable",
      "type": "function"
    },
    {
      "inputs": [
        {
          "internalType": "bytes4",
          "name": "interfaceId",
          "type": "bytes4"
        }
      ],
      "name": "supportsInterface",
      "outputs": [
        {
          "internalType": "bool",
          "name": "",
          "type": "bool"
        }
      ],
      "stateMutability": "view",
      "type": "function"
    },
    {
      "inputs": [
        {
          "internalType": "address",
          "name": "_token",
          "type": "address"
        },
        {
          "internalType": "address",
          "name": "_from",
          "type": "address"
        },
        {
          "internalType": "address",
          "name": "_to",
          "type": "address"
        },
        {
          "internalType": "uint256",
          "name": "_amount",
          "type": "uint256"
        }
      ],
      "name": "transferFromToken",
      "outputs": [],
      "stateMutability": "nonpayable",
      "type": "function"
    },
    {
      "inputs": [
        {
          "internalType": "address",
          "name": "_token",
          "type": "address"
        },
        {
          "internalType": "address",
          "name": "_to",
          "type": "address"
        },
        {
          "internalType": "uint256",
          "name": "_amount",
          "type": "uint256"
        }
      ],
      "name": "transferToken",
      "outputs": [],
      "stateMutability": "nonpayable",
      "type": "function"
    }
  ],
  "bytecode": "0x608060405260326000553480156200001657600080fd5b5060405162002fcf38038062002fcf83398101604081905262000039916200016b565b62000044816200004c565b505062000196565b600080546200005c6001620000ea565b1115620000a15760405162461bcd60e51b815260206004820152600f60248201526e1bdddb995c9cc8195e18d959591959608a1b604482015260640160405180910390fd5b620000ae600183620000fb565b6040519091506001600160a01b038316907f994a936646fe87ffe4f1e469d3d6aa417d6b855598397f323de5b449f765f0c390600090a2919050565b6000620000f5825490565b92915050565b600062000112836001600160a01b03841662000119565b9392505050565b60008181526001830160205260408120546200016257508154600181810184556000848152602080822090930184905584548482528286019093526040902091909155620000f5565b506000620000f5565b6000602082840312156200017e57600080fd5b81516001600160a01b03811681146200011257600080fd5b612e2980620001a66000396000f3fe60806040523480156200001157600080fd5b50600436106200012d5760003560e01c80637f89328f11620000af578063da3e3397116200007a578063da3e339714620002ad578063e8a0aed314620002c4578063ed60c0fc14620002f4578063f5537ede146200030d578063fb3c0d70146200032457600080fd5b80637f89328f146200023057806392fa450a14620002475780639a7b612a146200025e578063ac9650d8146200028757600080fd5b80632cb5568e11620000fc5780632cb5568e14620001a75780632f54bf6e14620001be5780634937b17414620001d55780637065cb48146200020257806379c65068146200021957600080fd5b806301ffc9a714620001325780630db02622146200015e578063125bfb661462000177578063173825d91462000190575b600080fd5b62000149620001433660046200127d565b6200033b565b60405190151581526020015b60405180910390f35b6200016862000373565b60405190815260200162000155565b6200018e62000188366004620012c1565b62000386565b005b62000149620001a136600462001302565b6200043e565b6200018e620001b836600462001320565b620004b5565b62000149620001cf36600462001302565b62000555565b620001ec620001e636600462001320565b62000564565b6040805192835260208301919091520162000155565b620001496200021336600462001302565b62000653565b6200018e6200022a3660046200134f565b62000691565b6200018e62000241366004620012c1565b62000731565b6200018e62000258366004620012c1565b6200099a565b6200026d63612d4d5d60e11b81565b6040516001600160e01b0319909116815260200162000155565b6200029e620002983660046200137c565b62000b6d565b6040516200015591906200144a565b6200018e620002be366004620012c1565b62000c75565b620002db620002d53660046200155b565b62000cd7565b6040516001600160a01b03909116815260200162000155565b620002fe62000d8a565b604051620001559190620015e1565b6200018e6200031e366004620012c1565b62000d98565b6200018e6200033536600462001630565b62000dfa565b60006001600160e01b0319821663612d4d5d60e11b14806200036d57506301ffc9a760e01b6001600160e01b03198316145b92915050565b600062000381600162000eab565b905090565b6200039360013362000eb6565b620003bb5760405162461bcd60e51b8152600401620003b29062001682565b60405180910390fd5b6040516323b872dd60e01b81526001600160a01b038381166004830152306024830152604482018390528416906323b872dd906064015b6020604051808303816000875af115801562000412573d6000803e3d6000fd5b505050506040513d601f19601f82011682018060405250810190620004389190620016c9565b50505050565b60006200044d60013362000eb6565b6200046c5760405162461bcd60e51b8152600401620003b29062001682565b6200047960018362000ed9565b6040519091506001600160a01b038316907f58619076adf5bb0943d100ef88d52d7c3fd691b19d3a9071b555b651fbf418da90600090a2919050565b620004c260013362000eb6565b620004e15760405162461bcd60e51b8152600401620003b29062001682565b604051630e0cb96960e31b81526001600160a01b038281166004830152831690637065cb48906024016020604051808303816000875af11580156200052a573d6000803e3d6000fd5b505050506040513d601f19601f82011682018060405250810190620005509190620016c9565b505050565b60006200036d60018362000eb6565b604051636eb1769f60e11b81526001600160a01b038281166004830152306024830152600091829185169063dd62ed3e90604401602060405180830381865afa158015620005b6573d6000803e3d6000fd5b505050506040513d601f19601f82011682018060405250810190620005dc9190620016ed565b6040516370a0823160e01b81523060048201529092506001600160a01b038516906370a0823190602401602060405180830381865afa15801562000624573d6000803e3d6000fd5b505050506040513d601f19601f820116820180604052508101906200064a9190620016ed565b90509250929050565b60006200066260013362000eb6565b620006815760405162461bcd60e51b8152600401620003b29062001682565b6200036d8262000ef0565b919050565b6200069e60013362000eb6565b620006bd5760405162461bcd60e51b8152600401620003b29062001682565b6040516340c10f1960e01b8152306004820152602481018290526001600160a01b038316906340c10f19906044016020604051808303816000875af11580156200070b573d6000803e3d6000fd5b505050506040513d601f19601f82011682018060405250810190620005509190620016ed565b6200073e60013362000eb6565b6200075d5760405162461bcd60e51b8152600401620003b29062001682565b6001600160a01b038316620007b55760405162461bcd60e51b815260206004820152601c60248201527f746f6b656e20616464726573732063616e6e6f74206265207a65726f000000006044820152606401620003b2565b6001600160a01b0382166200080d5760405162461bcd60e51b815260206004820152601e60248201527f617070726f766520616464726573732063616e6e6f74206265207a65726f00006044820152606401620003b2565b60008111620008575760405162461bcd60e51b8152602060048201526015602482015274616d6f756e742063616e6e6f74206265207a65726f60581b6044820152606401620003b2565b6040516340c10f1960e01b81523060048201526024810182905283906001600160a01b038216906340c10f19906044016020604051808303816000875af1158015620008a7573d6000803e3d6000fd5b505050506040513d601f19601f82011682018060405250810190620008cd9190620016ed565b5060405163095ea7b360e01b81526001600160a01b0384811660048301526024820184905282169063095ea7b3906044015b6020604051808303816000875af11580156200091f573d6000803e3d6000fd5b505050506040513d601f19601f82011682018060405250810190620009459190620016c9565b50826001600160a01b0316846001600160a01b03167fdc6904c4e8e3746f835eb600662c644c895c758995784a4b39c68f75355b2d27846040516200098c91815260200190565b60405180910390a350505050565b620009a760013362000eb6565b620009c65760405162461bcd60e51b8152600401620003b29062001682565b6001600160a01b03831662000a1e5760405162461bcd60e51b815260206004820152601c60248201527f746f6b656e20616464726573732063616e6e6f74206265207a65726f000000006044820152606401620003b2565b6001600160a01b03821662000a765760405162461bcd60e51b815260206004820152601e60248201527f617070726f766520616464726573732063616e6e6f74206265207a65726f00006044820152606401620003b2565b6000811162000ac05760405162461bcd60e51b8152602060048201526015602482015274616d6f756e742063616e6e6f74206265207a65726f60581b6044820152606401620003b2565b6040516340c10f1960e01b81523060048201526024810182905283906001600160a01b038216906340c10f19906044016020604051808303816000875af115801562000b10573d6000803e3d6000fd5b505050506040513d601f19601f8201168201806040525081019062000b369190620016ed565b5060405163a9059cbb60e01b81526001600160a01b0384811660048301526024820184905282169063a9059cbb90604401620008ff565b6040805160008152602081019091526060908267ffffffffffffffff81111562000b9b5762000b9b620014b0565b60405190808252806020026020018201604052801562000bd057816020015b606081526020019060019003908162000bba5790505b50915060005b8381101562000c6d5762000c373086868481811062000bf95762000bf962001733565b905060200281019062000c0d919062001749565b8560405160200162000c22939291906200179a565b60405160208183030381529060405262000f8b565b83828151811062000c4c5762000c4c62001733565b6020026020010181905250808062000c6490620017c3565b91505062000bd6565b505092915050565b62000c8260013362000eb6565b62000ca15760405162461bcd60e51b8152600401620003b29062001682565b60405163095ea7b360e01b81526001600160a01b0383811660048301526024820183905284169063095ea7b390604401620003f2565b600062000ce660013362000eb6565b62000d055760405162461bcd60e51b8152600401620003b29062001682565b60008484308560405162000d19906200126f565b62000d289493929190620017df565b604051809103906000f08015801562000d45573d6000803e3d6000fd5b5060405190915081906001600160a01b038216907f2e2b3f61b70d2d131b2a807371103cc98d51adcaa5e9a8f9c32658ad8426e74e90600090a29150505b9392505050565b606062000381600162001007565b62000da560013362000eb6565b62000dc45760405162461bcd60e51b8152600401620003b29062001682565b60405163a9059cbb60e01b81526001600160a01b0383811660048301526024820183905284169063a9059cbb90604401620003f2565b62000e0760013362000eb6565b62000e265760405162461bcd60e51b8152600401620003b29062001682565b6040516323b872dd60e01b81526001600160a01b0384811660048301528381166024830152604482018390528516906323b872dd906064016020604051808303816000875af115801562000e7e573d6000803e3d6000fd5b505050506040513d601f19601f8201168201806040525081019062000ea49190620016c9565b5050505050565b60006200036d825490565b6001600160a01b0381166000908152600183016020526040812054151562000d83565b600062000d83836001600160a01b03841662001016565b6000805462000f00600162000eab565b111562000f425760405162461bcd60e51b815260206004820152600f60248201526e1bdddb995c9cc8195e18d959591959608a1b6044820152606401620003b2565b62000f4f6001836200111a565b6040519091506001600160a01b038316907f994a936646fe87ffe4f1e469d3d6aa417d6b855598397f323de5b449f765f0c390600090a2919050565b6060600080846001600160a01b03168460405162000faa91906200182d565b600060405180830381855af49150503d806000811462000fe7576040519150601f19603f3d011682016040523d82523d6000602084013e62000fec565b606091505b509150915062000ffe85838362001131565b95945050505050565b6060600062000d838362001195565b600081815260018301602052604081205480156200110f5760006200103d6001836200171d565b855490915060009062001053906001906200171d565b9050808214620010bf57600086600001828154811062001077576200107762001733565b90600052602060002001549050808760000184815481106200109d576200109d62001733565b6000918252602080832090910192909255918252600188019052604090208390555b8554869080620010d357620010d36200184b565b6001900381819060005260206000200160009055905585600101600086815260200190815260200160002060009055600193505050506200036d565b60009150506200036d565b600062000d83836001600160a01b038416620011f3565b6060826200114a57620011448262001245565b62000d83565b81511580156200116257506001600160a01b0384163b155b156200118d57604051639996b31560e01b81526001600160a01b0385166004820152602401620003b2565b508062000d83565b606081600001805480602002602001604051908101604052809291908181526020018280548015620011e757602002820191906000526020600020905b815481526020019060010190808311620011d2575b50505050509050919050565b60008181526001830160205260408120546200123c575081546001818101845560008481526020808220909301849055845484825282860190935260409020919091556200036d565b5060006200036d565b805115620012565780518082602001fd5b604051630a12f52160e11b815260040160405180910390fd5b611592806200186283390190565b6000602082840312156200129057600080fd5b81356001600160e01b03198116811462000d8357600080fd5b80356001600160a01b03811681146200068c57600080fd5b600080600060608486031215620012d757600080fd5b620012e284620012a9565b9250620012f260208501620012a9565b9150604084013590509250925092565b6000602082840312156200131557600080fd5b62000d8382620012a9565b600080604083850312156200133457600080fd5b6200133f83620012a9565b91506200064a60208401620012a9565b600080604083850312156200136357600080fd5b6200136e83620012a9565b946020939093013593505050565b600080602083850312156200139057600080fd5b823567ffffffffffffffff80821115620013a957600080fd5b818501915085601f830112620013be57600080fd5b813581811115620013ce57600080fd5b8660208260051b8501011115620013e457600080fd5b60209290920196919550909350505050565b60005b8381101562001413578181015183820152602001620013f9565b50506000910152565b6000815180845262001436816020860160208601620013f6565b601f01601f19169290920160200192915050565b6000602080830181845280855180835260408601915060408160051b870101925083870160005b82811015620014a357603f19888603018452620014908583516200141c565b9450928501929085019060010162001471565b5092979650505050505050565b634e487b7160e01b600052604160045260246000fd5b600082601f830112620014d857600080fd5b813567ffffffffffffffff80821115620014f657620014f6620014b0565b604051601f8301601f19908116603f01168101908282118183101715620015215762001521620014b0565b816040528381528660208588010111156200153b57600080fd5b836020870160208301376000602085830101528094505050505092915050565b6000806000606084860312156200157157600080fd5b833567ffffffffffffffff808211156200158a57600080fd5b6200159887838801620014c6565b94506020860135915080821115620015af57600080fd5b50620015be86828701620014c6565b925050604084013560ff81168114620015d657600080fd5b809150509250925092565b6020808252825182820181905260009190848201906040850190845b81811015620016245783516001600160a01b031683529284019291840191600101620015fd565b50909695505050505050565b600080600080608085870312156200164757600080fd5b6200165285620012a9565b93506200166260208601620012a9565b92506200167260408601620012a9565b9396929550929360600135925050565b60208082526027908201527f4f6e6c79206f776e65722063616e20657865637574652074686973207472616e60408201526639b0b1ba34b7b760c91b606082015260800190565b600060208284031215620016dc57600080fd5b8151801515811462000d8357600080fd5b6000602082840312156200170057600080fd5b5051919050565b634e487b7160e01b600052601160045260246000fd5b818103818111156200036d576200036d62001707565b634e487b7160e01b600052603260045260246000fd5b6000808335601e198436030181126200176157600080fd5b83018035915067ffffffffffffffff8211156200177d57600080fd5b6020019150368190038213156200179357600080fd5b9250929050565b828482376000838201600081528351620017b9818360208801620013f6565b0195945050505050565b600060018201620017d857620017d862001707565b5060010190565b608081526000620017f460808301876200141c565b82810360208401526200180881876200141c565b6001600160a01b03959095166040840152505060ff9190911660609091015292915050565b6000825162001841818460208701620013f6565b9190910192915050565b634e487b7160e01b600052603160045260246000fdfe608060405260326000553480156200001657600080fd5b50604051620015923803806200159283398101604081905262000039916200026f565b83836006620000498382620003a4565b506007620000588282620003a4565b5050506200006c826200008b60201b60201c565b506008805460ff191660ff929092169190911790555062000470915050565b600080546200009b600162000129565b1115620000e05760405162461bcd60e51b815260206004820152600f60248201526e1bdddb995c9cc8195e18d959591959608a1b604482015260640160405180910390fd5b620000ed6001836200013a565b6040519091506001600160a01b038316907f994a936646fe87ffe4f1e469d3d6aa417d6b855598397f323de5b449f765f0c390600090a2919050565b600062000134825490565b92915050565b600062000151836001600160a01b03841662000158565b9392505050565b6000818152600183016020526040812054620001a15750815460018181018455600084815260208082209093018490558454848252828601909352604090209190915562000134565b50600062000134565b634e487b7160e01b600052604160045260246000fd5b600082601f830112620001d257600080fd5b81516001600160401b0380821115620001ef57620001ef620001aa565b604051601f8301601f19908116603f011681019082821181831017156200021a576200021a620001aa565b816040528381526020925086838588010111156200023757600080fd5b600091505b838210156200025b57858201830151818301840152908201906200023c565b600093810190920192909252949350505050565b600080600080608085870312156200028657600080fd5b84516001600160401b03808211156200029e57600080fd5b620002ac88838901620001c0565b95506020870151915080821115620002c357600080fd5b50620002d287828801620001c0565b604087015190945090506001600160a01b0381168114620002f257600080fd5b606086015190925060ff811681146200030a57600080fd5b939692955090935050565b600181811c908216806200032a57607f821691505b6020821081036200034b57634e487b7160e01b600052602260045260246000fd5b50919050565b601f8211156200039f57600081815260208120601f850160051c810160208610156200037a5750805b601f850160051c820191505b818110156200039b5782815560010162000386565b5050505b505050565b81516001600160401b03811115620003c057620003c0620001aa565b620003d881620003d1845462000315565b8462000351565b602080601f831160018114620004105760008415620003f75750858301515b600019600386901b1c1916600185901b1785556200039b565b600085815260208120601f198616915b82811015620004415788860151825594840194600190910190840162000420565b5085821015620004605787850151600019600388901b60f8161c191681555b5050505050600190811b01905550565b61111280620004806000396000f3fe608060405234801561001057600080fd5b50600436106101165760003560e01c806342966c68116100a257806395d89b411161007157806395d89b411461023f578063a9059cbb14610247578063ac9650d81461025a578063dd62ed3e1461027a578063ed60c0fc146102b357600080fd5b806342966c68146101db5780637065cb48146101f057806370a082311461020357806379cc67901461022c57600080fd5b806318160ddd116100e957806318160ddd1461018557806323b872dd1461018d5780632f54bf6e146101a0578063313ce567146101b357806340c10f19146101c857600080fd5b806306fdde031461011b578063095ea7b3146101395780630db026221461015c578063173825d914610172575b600080fd5b6101236102c8565b6040516101309190610d1e565b60405180910390f35b61014c610147366004610d48565b61035a565b6040519015158152602001610130565b610164610374565b604051908152602001610130565b61014c610180366004610d72565b610385565b600554610164565b61014c61019b366004610d8d565b6103fe565b61014c6101ae366004610d72565b610424565b60085460405160ff9091168152602001610130565b6101646101d6366004610d48565b610431565b6101ee6101e9366004610dc9565b61046a565b005b61014c6101fe366004610d72565b610477565b610164610211366004610d72565b6001600160a01b031660009081526003602052604090205490565b6101ee61023a366004610d48565b6104ae565b6101236104c7565b61014c610255366004610d48565b6104d6565b61026d610268366004610de2565b6104e4565b6040516101309190610e57565b610164610288366004610eb9565b6001600160a01b03918216600090815260046020908152604080832093909416825291909152205490565b6102bb6105d7565b6040516101309190610eec565b6060600680546102d790610f39565b80601f016020809104026020016040519081016040528092919081815260200182805461030390610f39565b80156103505780601f1061032557610100808354040283529160200191610350565b820191906000526020600020905b81548152906001019060200180831161033357829003601f168201915b5050505050905090565b6000336103688185856105e3565b60019150505b92915050565b600061038060016105f5565b905090565b60006103926001336105ff565b6103b75760405162461bcd60e51b81526004016103ae90610f6d565b60405180910390fd5b6103c2600183610621565b6040519091506001600160a01b038316907f58619076adf5bb0943d100ef88d52d7c3fd691b19d3a9071b555b651fbf418da90600090a2919050565b60003361040c858285610636565b6104178585856106b4565b60019150505b9392505050565b600061036e6001836105ff565b600061043e6001336105ff565b61045a5760405162461bcd60e51b81526004016103ae90610f6d565b6104648383610713565b50919050565b6104743382610749565b50565b60006104846001336105ff565b6104a05760405162461bcd60e51b81526004016103ae90610f6d565b61036e8261077f565b919050565b6104b9823383610636565b6104c38282610749565b5050565b6060600780546102d790610f39565b6000336103688185856106b4565b6040805160008152602081019091526060908267ffffffffffffffff81111561050f5761050f610fdd565b60405190808252806020026020018201604052801561054257816020015b606081526020019060019003908161052d5790505b50915060005b838110156105cf5761059f3086868481811061056657610566610ff3565b90506020028101906105789190611009565b8560405160200161058b93929190611057565b604051602081830303815290604052610814565b8382815181106105b1576105b1610ff3565b602002602001018190525080806105c79061107e565b915050610548565b505092915050565b6060610380600161088a565b6105f08383836001610897565b505050565b600061036e825490565b6001600160a01b0381166000908152600183016020526040812054151561041d565b600061041d836001600160a01b03841661096c565b6001600160a01b0383811660009081526004602090815260408083209386168352929052205460001981146106ae578181101561069f57604051637dc7a0d960e11b81526001600160a01b038416600482015260248101829052604481018390526064016103ae565b6106ae84848484036000610897565b50505050565b6001600160a01b0383166106de57604051634b637e8f60e11b8152600060048201526024016103ae565b6001600160a01b0382166107085760405163ec442f0560e01b8152600060048201526024016103ae565b6105f0838383610a5f565b6001600160a01b03821661073d5760405163ec442f0560e01b8152600060048201526024016103ae565b6104c360008383610a5f565b6001600160a01b03821661077357604051634b637e8f60e11b8152600060048201526024016103ae565b6104c382600083610a5f565b6000805461078d60016105f5565b11156107cd5760405162461bcd60e51b815260206004820152600f60248201526e1bdddb995c9cc8195e18d959591959608a1b60448201526064016103ae565b6107d8600183610b89565b6040519091506001600160a01b038316907f994a936646fe87ffe4f1e469d3d6aa417d6b855598397f323de5b449f765f0c390600090a2919050565b6060600080846001600160a01b0316846040516108319190611097565b600060405180830381855af49150503d806000811461086c576040519150601f19603f3d011682016040523d82523d6000602084013e610871565b606091505b5091509150610881858383610b9e565b95945050505050565b6060600061041d83610bfa565b6001600160a01b0384166108c15760405163e602df0560e01b8152600060048201526024016103ae565b6001600160a01b0383166108eb57604051634a1406b160e11b8152600060048201526024016103ae565b6001600160a01b03808516600090815260046020908152604080832093871683529290522082905580156106ae57826001600160a01b0316846001600160a01b03167f8c5be1e5ebec7d5bd14f71427d1e84f3dd0314c0f7b2291e5b200ac8c7c3b9258460405161095e91815260200190565b60405180910390a350505050565b60008181526001830160205260408120548015610a55576000610990600183610fca565b85549091506000906109a490600190610fca565b9050808214610a095760008660000182815481106109c4576109c4610ff3565b90600052602060002001549050808760000184815481106109e7576109e7610ff3565b6000918252602080832090910192909255918252600188019052604090208390555b8554869080610a1a57610a1a6110b3565b60019003818190600052602060002001600090559055856001016000868152602001908152602001600020600090556001935050505061036e565b600091505061036e565b6001600160a01b038316610a8a578060056000828254610a7f91906110c9565b90915550610afc9050565b6001600160a01b03831660009081526003602052604090205481811015610add5760405163391434e360e21b81526001600160a01b038516600482015260248101829052604481018390526064016103ae565b6001600160a01b03841660009081526003602052604090209082900390555b6001600160a01b038216610b1857600580548290039055610b37565b6001600160a01b03821660009081526003602052604090208054820190555b816001600160a01b0316836001600160a01b03167fddf252ad1be2c89b69c2b068fc378daa952ba7f163c4a11628f55a4df523b3ef83604051610b7c91815260200190565b60405180910390a3505050565b600061041d836001600160a01b038416610c56565b606082610bb357610bae82610ca5565b61041d565b8151158015610bca57506001600160a01b0384163b155b15610bf357604051639996b31560e01b81526001600160a01b03851660048201526024016103ae565b508061041d565b606081600001805480602002602001604051908101604052809291908181526020018280548015610c4a57602002820191906000526020600020905b815481526020019060010190808311610c36575b50505050509050919050565b6000818152600183016020526040812054610c9d5750815460018181018455600084815260208082209093018490558454848252828601909352604090209190915561036e565b50600061036e565b805115610cb55780518082602001fd5b604051630a12f52160e11b815260040160405180910390fd5b60005b83811015610ce9578181015183820152602001610cd1565b50506000910152565b60008151808452610d0a816020860160208601610cce565b601f01601f19169290920160200192915050565b60208152600061041d6020830184610cf2565b80356001600160a01b03811681146104a957600080fd5b60008060408385031215610d5b57600080fd5b610d6483610d31565b946020939093013593505050565b600060208284031215610d8457600080fd5b61041d82610d31565b600080600060608486031215610da257600080fd5b610dab84610d31565b9250610db960208501610d31565b9150604084013590509250925092565b600060208284031215610ddb57600080fd5b5035919050565b60008060208385031215610df557600080fd5b823567ffffffffffffffff80821115610e0d57600080fd5b818501915085601f830112610e2157600080fd5b813581811115610e3057600080fd5b8660208260051b8501011115610e4557600080fd5b60209290920196919550909350505050565b6000602080830181845280855180835260408601915060408160051b870101925083870160005b82811015610eac57603f19888603018452610e9a858351610cf2565b94509285019290850190600101610e7e565b5092979650505050505050565b60008060408385031215610ecc57600080fd5b610ed583610d31565b9150610ee360208401610d31565b90509250929050565b6020808252825182820181905260009190848201906040850190845b81811015610f2d5783516001600160a01b031683529284019291840191600101610f08565b50909695505050505050565b600181811c90821680610f4d57607f821691505b60208210810361046457634e487b7160e01b600052602260045260246000fd5b60208082526027908201527f4f6e6c79206f776e65722063616e20657865637574652074686973207472616e60408201526639b0b1ba34b7b760c91b606082015260800190565b634e487b7160e01b600052601160045260246000fd5b8181038181111561036e5761036e610fb4565b634e487b7160e01b600052604160045260246000fd5b634e487b7160e01b600052603260045260246000fd5b6000808335601e1984360301811261102057600080fd5b83018035915067ffffffffffffffff82111561103b57600080fd5b60200191503681900382131561105057600080fd5b9250929050565b828482376000838201600081528351611074818360208801610cce565b0195945050505050565b60006001820161109057611090610fb4565b5060010190565b600082516110a9818460208701610cce565b9190910192915050565b634e487b7160e01b600052603160045260246000fd5b8082018082111561036e5761036e610fb456fea264697066735822122047689b50c6d5f3d7459e98a4999e4439da9dc359d11de9131b2fedcb398a5ecb64736f6c63430008140033a2646970667358221220b609fc1073ddaae6b306c82e0e0f0c2ad1327879bf8599f246b9ff6dce9ac1fe64736f6c63430008140033",
  "linkReferences": {},
  "deployedLinkReferences": {}
}